{
  "contractName": "ArtMarketplace",
  "abi": [
    {
      "inputs": [
        {
          "internalType": "contract ArtToken",
          "name": "_token",
          "type": "address"
        }
      ],
      "stateMutability": "nonpayable",
      "type": "constructor"
    },
    {
      "anonymous": false,
      "inputs": [
        {
          "indexed": false,
          "internalType": "uint256",
          "name": "id",
          "type": "uint256"
        },
        {
          "indexed": false,
          "internalType": "uint256",
          "name": "tokenId",
          "type": "uint256"
        },
        {
          "indexed": false,
          "internalType": "uint256",
          "name": "price",
          "type": "uint256"
        }
      ],
      "name": "itemAddedForSale",
      "type": "event"
    },
    {
      "anonymous": false,
      "inputs": [
        {
          "indexed": false,
          "internalType": "uint256",
          "name": "id",
          "type": "uint256"
        },
        {
          "indexed": false,
          "internalType": "address",
          "name": "buyer",
          "type": "address"
        },
        {
          "indexed": false,
          "internalType": "uint256",
          "name": "price",
          "type": "uint256"
        }
      ],
      "name": "itemSold",
      "type": "event"
    },
    {
      "anonymous": false,
      "inputs": [
        {
          "indexed": false,
          "internalType": "uint256",
          "name": "id",
          "type": "uint256"
        },
        {
          "indexed": false,
          "internalType": "address",
          "name": "receiver",
          "type": "address"
        }
      ],
      "name": "itemTransfer",
      "type": "event"
    },
    {
      "inputs": [
        {
          "internalType": "uint256",
          "name": "",
          "type": "uint256"
        }
      ],
      "name": "activeItems",
      "outputs": [
        {
          "internalType": "bool",
          "name": "",
          "type": "bool"
        }
      ],
      "stateMutability": "view",
      "type": "function"
    },
    {
      "inputs": [
        {
          "internalType": "uint256",
          "name": "",
          "type": "uint256"
        }
      ],
      "name": "itemsForSale",
      "outputs": [
        {
          "internalType": "uint256",
          "name": "id",
          "type": "uint256"
        },
        {
          "internalType": "uint256",
          "name": "tokenId",
          "type": "uint256"
        },
        {
          "internalType": "address payable",
          "name": "seller",
          "type": "address"
        },
        {
          "internalType": "uint256",
          "name": "price",
          "type": "uint256"
        },
        {
          "internalType": "bool",
          "name": "isSold",
          "type": "bool"
        }
      ],
      "stateMutability": "view",
      "type": "function"
    },
    {
      "inputs": [
        {
          "internalType": "uint256",
          "name": "tokenId",
          "type": "uint256"
        },
        {
          "internalType": "uint256",
          "name": "price",
          "type": "uint256"
        }
      ],
      "name": "putItemForSale",
      "outputs": [
        {
          "internalType": "uint256",
          "name": "",
          "type": "uint256"
        }
      ],
      "stateMutability": "nonpayable",
      "type": "function"
    },
    {
      "inputs": [
        {
          "internalType": "uint256",
          "name": "id",
          "type": "uint256"
        }
      ],
      "name": "buyItem",
      "outputs": [],
      "stateMutability": "payable",
      "type": "function"
    },
    {
      "inputs": [],
      "name": "totalItemsForSale",
      "outputs": [
        {
          "internalType": "uint256",
          "name": "",
          "type": "uint256"
        }
      ],
      "stateMutability": "view",
      "type": "function"
    }
  ],
  "bytecode": "0x608060405234801562000010575f80fd5b5060405162001264380380620012648339818101604052810190620000369190620000f4565b805f806101000a81548173ffffffffffffffffffffffffffffffffffffffff021916908373ffffffffffffffffffffffffffffffffffffffff1602179055505062000124565b5f80fd5b5f73ffffffffffffffffffffffffffffffffffffffff82169050919050565b5f620000ab8262000080565b9050919050565b5f620000be826200009f565b9050919050565b620000d081620000b2565b8114620000db575f80fd5b50565b5f81519050620000ee81620000c5565b92915050565b5f602082840312156200010c576200010b6200007c565b5b5f6200011b84828501620000de565b91505092915050565b61113280620001325f395ff3fe608060405260043610610049575f3560e01c8063092d0afc1461004d5780639c318c7b1461008d578063e7fb74c7146100c9578063ec8120c9146100e5578063f4f357641461010f575b5f80fd5b348015610058575f80fd5b50610073600480360381019061006e9190610b5f565b61014b565b604051610084959493929190610bf2565b60405180910390f35b348015610098575f80fd5b506100b360048036038101906100ae9190610b5f565b6101b7565b6040516100c09190610c43565b60405180910390f35b6100e360048036038101906100de9190610b5f565b6101d4565b005b3480156100f0575f80fd5b506100f961071e565b6040516101069190610c5c565b60405180910390f35b34801561011a575f80fd5b5061013560048036038101906101309190610c75565b61072a565b6040516101429190610c5c565b60405180910390f35b6001818154811061015a575f80fd5b905f5260205f2090600502015f91509050805f015490806001015490806002015f9054906101000a900473ffffffffffffffffffffffffffffffffffffffff1690806003015490806004015f9054906101000a900460ff16905085565b6002602052805f5260405f205f915054906101000a900460ff1681565b806001805490508110801561020a575080600182815481106101f9576101f8610cb3565b5b905f5260205f2090600502015f0154145b610249576040517f08c379a000000000000000000000000000000000000000000000000000000000815260040161024090610d3a565b60405180910390fd5b816001818154811061025e5761025d610cb3565b5b905f5260205f2090600502016004015f9054906101000a900460ff16156102ba576040517f08c379a00000000000000000000000000000000000000000000000000000000081526004016102b190610da2565b60405180910390fd5b600183815481106102ce576102cd610cb3565b5b905f5260205f209060050201600101543073ffffffffffffffffffffffffffffffffffffffff165f8054906101000a900473ffffffffffffffffffffffffffffffffffffffff1673ffffffffffffffffffffffffffffffffffffffff1663081812fc836040518263ffffffff1660e01b815260040161034d9190610c5c565b602060405180830381865afa158015610368573d5f803e3d5ffd5b505050506040513d601f19601f8201168201806040525081019061038c9190610dfb565b73ffffffffffffffffffffffffffffffffffffffff16146103e2576040517f08c379a00000000000000000000000000000000000000000000000000000000081526004016103d990610e70565b60405180910390fd5b600184815481106103f6576103f5610cb3565b5b905f5260205f20906005020160030154341015610448576040517f08c379a000000000000000000000000000000000000000000000000000000000815260040161043f90610ed8565b60405180910390fd5b6001848154811061045c5761045b610cb3565b5b905f5260205f2090600502016002015f9054906101000a900473ffffffffffffffffffffffffffffffffffffffff1673ffffffffffffffffffffffffffffffffffffffff163373ffffffffffffffffffffffffffffffffffffffff16036104c1575f80fd5b60018085815481106104d6576104d5610cb3565b5b905f5260205f2090600502016004015f6101000a81548160ff0219169083151502179055505f60025f6001878154811061051357610512610cb3565b5b905f5260205f2090600502016001015481526020019081526020015f205f6101000a81548160ff0219169083151502179055505f8054906101000a900473ffffffffffffffffffffffffffffffffffffffff1673ffffffffffffffffffffffffffffffffffffffff166342842e0e6001868154811061059557610594610cb3565b5b905f5260205f2090600502016002015f9054906101000a900473ffffffffffffffffffffffffffffffffffffffff1633600188815481106105d9576105d8610cb3565b5b905f5260205f209060050201600101546040518463ffffffff1660e01b815260040161060793929190610f60565b5f604051808303815f87803b15801561061e575f80fd5b505af1158015610630573d5f803e3d5ffd5b505050506001848154811061064857610647610cb3565b5b905f5260205f2090600502016002015f9054906101000a900473ffffffffffffffffffffffffffffffffffffffff1673ffffffffffffffffffffffffffffffffffffffff166108fc3490811502906040515f60405180830381858888f193505050501580156106b9573d5f803e3d5ffd5b507f8164c6f8917e418c49813e4586897c7067de5a886aa1bea980cd11fa57d482648433600187815481106106f1576106f0610cb3565b5b905f5260205f2090600502016003015460405161071093929190610f95565b60405180910390a150505050565b5f600180549050905090565b5f823373ffffffffffffffffffffffffffffffffffffffff165f8054906101000a900473ffffffffffffffffffffffffffffffffffffffff1673ffffffffffffffffffffffffffffffffffffffff16636352211e836040518263ffffffff1660e01b815260040161079b9190610c5c565b602060405180830381865afa1580156107b6573d5f803e3d5ffd5b505050506040513d601f19601f820116820180604052508101906107da9190610dfb565b73ffffffffffffffffffffffffffffffffffffffff1614610830576040517f08c379a000000000000000000000000000000000000000000000000000000000815260040161082790611014565b60405180910390fd5b833073ffffffffffffffffffffffffffffffffffffffff165f8054906101000a900473ffffffffffffffffffffffffffffffffffffffff1673ffffffffffffffffffffffffffffffffffffffff1663081812fc836040518263ffffffff1660e01b81526004016108a09190610c5c565b602060405180830381865afa1580156108bb573d5f803e3d5ffd5b505050506040513d601f19601f820116820180604052508101906108df9190610dfb565b73ffffffffffffffffffffffffffffffffffffffff1614610935576040517f08c379a000000000000000000000000000000000000000000000000000000000815260040161092c90610e70565b60405180910390fd5b60025f8681526020019081526020015f205f9054906101000a900460ff1615610993576040517f08c379a000000000000000000000000000000000000000000000000000000000815260040161098a9061107c565b60405180910390fd5b5f600180549050905060016040518060a001604052808381526020018881526020013373ffffffffffffffffffffffffffffffffffffffff1681526020018781526020015f1515815250908060018154018082558091505060019003905f5260205f2090600502015f909190919091505f820151815f0155602082015181600101556040820151816002015f6101000a81548173ffffffffffffffffffffffffffffffffffffffff021916908373ffffffffffffffffffffffffffffffffffffffff160217905550606082015181600301556080820151816004015f6101000a81548160ff0219169083151502179055505050600160025f8881526020019081526020015f205f6101000a81548160ff0219169083151502179055508060018281548110610ac457610ac3610cb3565b5b905f5260205f2090600502015f015414610ae157610ae061109a565b5b7fafd8780f802588de8705083b0f6a33ac59b8d0228c80f9babe0549c1621c33f8818787604051610b14939291906110c7565b60405180910390a180935050505092915050565b5f80fd5b5f819050919050565b610b3e81610b2c565b8114610b48575f80fd5b50565b5f81359050610b5981610b35565b92915050565b5f60208284031215610b7457610b73610b28565b5b5f610b8184828501610b4b565b91505092915050565b610b9381610b2c565b82525050565b5f73ffffffffffffffffffffffffffffffffffffffff82169050919050565b5f610bc282610b99565b9050919050565b610bd281610bb8565b82525050565b5f8115159050919050565b610bec81610bd8565b82525050565b5f60a082019050610c055f830188610b8a565b610c126020830187610b8a565b610c1f6040830186610bc9565b610c2c6060830185610b8a565b610c396080830184610be3565b9695505050505050565b5f602082019050610c565f830184610be3565b92915050565b5f602082019050610c6f5f830184610b8a565b92915050565b5f8060408385031215610c8b57610c8a610b28565b5b5f610c9885828601610b4b565b9250506020610ca985828601610b4b565b9150509250929050565b7f4e487b71000000000000000000000000000000000000000000000000000000005f52603260045260245ffd5b5f82825260208201905092915050565b7f436f756c64206e6f742066696e64206974656d000000000000000000000000005f82015250565b5f610d24601383610ce0565b9150610d2f82610cf0565b602082019050919050565b5f6020820190508181035f830152610d5181610d18565b9050919050565b7f4974656d20697320616c726561647920736f6c640000000000000000000000005f82015250565b5f610d8c601483610ce0565b9150610d9782610d58565b602082019050919050565b5f6020820190508181035f830152610db981610d80565b9050919050565b5f610dca82610b99565b9050919050565b610dda81610dc0565b8114610de4575f80fd5b50565b5f81519050610df581610dd1565b92915050565b5f60208284031215610e1057610e0f610b28565b5b5f610e1d84828501610de7565b91505092915050565b7f4d61726b6574206973206e6f7420617070726f766564000000000000000000005f82015250565b5f610e5a601683610ce0565b9150610e6582610e26565b602082019050919050565b5f6020820190508181035f830152610e8781610e4e565b9050919050565b7f4e6f7420656e6f7567682066756e64732073656e7400000000000000000000005f82015250565b5f610ec2601583610ce0565b9150610ecd82610e8e565b602082019050919050565b5f6020820190508181035f830152610eef81610eb6565b9050919050565b5f819050919050565b5f610f19610f14610f0f84610b99565b610ef6565b610b99565b9050919050565b5f610f2a82610eff565b9050919050565b5f610f3b82610f20565b9050919050565b610f4b81610f31565b82525050565b610f5a81610dc0565b82525050565b5f606082019050610f735f830186610f42565b610f806020830185610f51565b610f8d6040830184610b8a565b949350505050565b5f606082019050610fa85f830186610b8a565b610fb56020830185610f51565b610fc26040830184610b8a565b949350505050565b7f53656e64657220646f6573206e6f74206f776e20746865206974656d000000005f82015250565b5f610ffe601c83610ce0565b915061100982610fca565b602082019050919050565b5f6020820190508181035f83015261102b81610ff2565b9050919050565b7f4974656d20697320616c726561647920757020666f722073616c6500000000005f82015250565b5f611066601b83610ce0565b915061107182611032565b602082019050919050565b5f6020820190508181035f8301526110938161105a565b9050919050565b7f4e487b71000000000000000000000000000000000000000000000000000000005f52600160045260245ffd5b5f6060820190506110da5f830186610b8a565b6110e76020830185610b8a565b6110f46040830184610b8a565b94935050505056fea2646970667358221220bdcb15e09a6ddb786350785d121444f5ed6db62e3dc9b690ad613af5f4889f3e64736f6c63430008180033",
  "immutableReferences": {},
  "source": "// SPDX-License-Identifier: MIT\npragma solidity ^0.8.0;\n\nimport \"./ArtToken.sol\";\nimport \"@openzeppelin/contracts/token/ERC721/ERC721.sol\";\nimport \"@openzeppelin/contracts/token/ERC721/extensions/ERC721Enumerable.sol\";\nimport \"@openzeppelin/contracts/token/ERC721/extensions/ERC721URIStorage.sol\";\nimport \"@openzeppelin/contracts/utils/Counters.sol\";\n\ncontract ArtMarketplace {\n  ArtToken private token;\n\n  struct ItemForSale {\n    uint256 id;\n    uint256 tokenId;\n    address payable seller;\n    uint256 price;\n    bool isSold;\n  }\n\n\n  ItemForSale[] public itemsForSale;\n  mapping(uint256 => bool) public activeItems; // tokenId => active?\n\n\n  event itemAddedForSale(uint256 id, uint256 tokenId, uint256 price);\n  event itemSold(uint256 id, address buyer, uint256 price);\n  event itemTransfer(uint256 id, address receiver);\n\n  constructor(ArtToken _token) {\n      token = _token;\n  }\n\n  modifier OnlyItemOwner(uint256 tokenId){\n    require(token.ownerOf(tokenId) == msg.sender, \"Sender does not own the item\");\n    _;\n  }\n\n  modifier HasTransferApproval(uint256 tokenId){\n    require(token.getApproved(tokenId) == address(this), \"Market is not approved\");\n    _;\n  }\n\n//  modifier HasEditApproval(uint256 tokenId){\n//    require(token.getApproved(tokenId) == address(this), \"Market is not approved\");\n//    _;\n//  }\n\n  modifier ItemExists(uint256 id){\n    require(id < itemsForSale.length && itemsForSale[id].id == id, \"Could not find item\");\n    _;\n  }\n\n  modifier IsForSale(uint256 id){\n    require(!itemsForSale[id].isSold, \"Item is already sold\");\n    _;\n  }\n\n  function putItemForSale(uint256 tokenId, uint256 price) \n    OnlyItemOwner(tokenId) \n    HasTransferApproval(tokenId)\n    external \n    returns (uint256){\n      require(!activeItems[tokenId], \"Item is already up for sale\");\n\n      uint256 newItemId = itemsForSale.length;\n      itemsForSale.push(ItemForSale({\n        id: newItemId,\n        tokenId: tokenId,\n        seller: payable(msg.sender),\n        price: price,\n        isSold: false\n      }));\n      activeItems[tokenId] = true;\n\n      assert(itemsForSale[newItemId].id == newItemId);\n      emit itemAddedForSale(newItemId, tokenId, price);\n\n      return newItemId;\n  }\n\n  function buyItem(uint256 id) \n    ItemExists(id)\n    IsForSale(id)\n    HasTransferApproval(itemsForSale[id].tokenId)\n    payable \n    external {\n      require(msg.value >= itemsForSale[id].price, \"Not enough funds sent\");\n      require(msg.sender != itemsForSale[id].seller);\n\n      itemsForSale[id].isSold = true;\n      activeItems[itemsForSale[id].tokenId] = false;\n      token.safeTransferFrom(itemsForSale[id].seller, msg.sender, itemsForSale[id].tokenId);\n      itemsForSale[id].seller.transfer(msg.value);\n\n      emit itemSold(id, msg.sender, itemsForSale[id].price);\n\n    }\n\n  function totalItemsForSale() external view returns(uint256) {\n    return itemsForSale.length;\n  }\n}\n\n//TODO:\n// - don't support bidding\n// - the user can't withdraw the item\n",
  "sourcePath": "/Users/jimmy/IdeaProjects/NFT-Marketplace/contracts/ArtMarketplace.sol",
  "compiler": {
    "name": "solc",
    "version": "0.8.24+commit.e11b9ed9.Emscripten.clang"
  },
  "schemaVersion": "3.4.5",
  "updatedAt": "2024-03-12T14:08:44.932Z",
  "devdoc": {
    "kind": "dev",
    "methods": {},
    "version": 1
  },
  "userdoc": {
    "kind": "user",
    "methods": {},
    "version": 1
  }
}